:100000000C9460000C940A030C9431030C94880047
:100010000C9488000C9488000C9488000C94B00315
:100020000C9488000C9488000C9488000C94880030
:100030000C9488000C9488000C9488000C94880020
:100040000C94EF010C9488000C940F040C94410460
:100050000C9488000C9488000C9488000C94880000
:100060000C94C2000C9488000000000800020100FB
:100070000003040700000000000000000102040863
:100080001020408001020408102001020408102002
:10009000040404040404040402020202020203032E
:1000A0000303030300000000250028002B000000CC
:1000B0000000240027002A00020071040E065406E6
:1000C00011241FBECFEFD8E0DEBFCDBF11E0A0E00E
:1000D000B1E0ECEFFEE002C005900D92A033B10755
:1000E000D9F722E0A0E3B1E001C01D92A23AB20725
:1000F000E1F710E0C0E6D0E004C02197FE010E94C5
:100100007607CD35D107C9F70E9459030C947C07B7
:100110000C94000040915201262F30E0240F311D35
:1001200021323105DCF420919D012430C9F4FC0119
:1001300080E090E0861758F4309152012191DC0163
:10014000AC5ABE4FA30FB11D2C930196F3CF8091F3
:100150005201680F6093520180E0089581E0089594
:1001600082E0089585ED8093BC008091BC0084FD01
:10017000FCCF10929D01089585EC8093BC001092F5
:100180009D0108951F920F920FB60F9211242F9385
:100190003F934F935F936F937F938F939F93AF930F
:1001A000BF93EF93FF938091B900887F803609F465
:1001B0009EC078F5883209F45DC090F4803109F46E
:1001C00056C038F4882309F4F5C0883009F44FC0CC
:1001D000F5C0883109F44EC0803209F45FC0EEC02A
:1001E000803409F46AC058F4803309F457C0883366
:1001F00009F0E4C0809330010E94BC00DFC080356C
:1002000009F44FC0883509F45DC0883409F0D6C0C0
:10021000D3C0883909F4C4C0A8F4883709F467C08A
:1002200038F4883609F463C0803709F460C0C6C06A
:10023000883809F4B5C0803909F45FC0803809F006
:10024000BDC05BC0803B09F483C038F4803A09F438
:1002500066C0883A09F47CC0B1C0803C09F4A4C0EF
:10026000883C09F4A1C0883B09F487C0A7C08091ED
:100270009C0110C09091750180917401981770F5E0
:10028000E091750181E08E0F80937501F0E0EA58EE
:10029000FE4F80818093BB0085EC83C0809330014A
:1002A0008BC0E091750181E08E0F80937501809184
:1002B000BB00F0E0EA58FE4F808390917501809179
:1002C00074016BC0E091750181E08E0F8093750120
:1002D0008091BB00F0E0EA58FE4F808380919B0143
:1002E00081116AC081E080939A0184EA5EC083E054
:1002F00080939D0110923101CFCF809131018032E6
:1003000008F04EC0E091310181E08E0F8093310101
:100310008091BB00F0E0EE5CFE4F8083BDCF0E9479
:10032000BC0080913101803230F4E0913101F0E085
:10033000EE5CFE4F10826091310170E0E091960119
:10034000F091970182E391E009951092310136C056
:1003500084E080939D011092530110925201E0912C
:100360009801F0919901099580915201811105C080
:1003700081E08093520110925401E091530181E099
:100380008E0F80935301F0E0EC5AFE4F80818093F2
:10039000BB009091530180915201981708F47CCFD3
:1003A00085E88093BC000AC085EC8093BC00109265
:1003B0009D0104C0109230010E94B200FF91EF91A4
:1003C000BF91AF919F918F917F916F915F914F916D
:1003D0003F912F910F900FBE0F901F9018951F9275
:1003E0000F920FB60F9211242F933F938F939F93E9
:1003F000AF93BF9380919F019091A001A091A10123
:10040000B091A20130919E0123E0230F2D3720F4FB
:100410000196A11DB11D05C026E8230F0296A11D5E
:10042000B11D20939E0180939F019093A001A09302
:10043000A101B093A2018091A3019091A401A09188
:10044000A501B091A6010196A11DB11D8093A30144
:100450009093A401A093A501B093A601BF91AF9181
:100460009F918F913F912F910F900FBE0F901F90F2
:100470001895789484B5826084BD84B5816084BD0C
:1004800085B5826085BD85B5816085BDEEE6F0E00D
:10049000808181608083E1E8F0E010828081826069
:1004A0008083808181608083E0E8F0E080818160EA
:1004B0008083E1EBF0E0808184608083E0EBF0E01A
:1004C000808181608083EAE7F0E0808184608083BE
:1004D0008081826080838081816080838081806868
:1004E00080831092C1000895833081F028F4813018
:1004F00099F08230A1F008958730A9F08830B9F0E2
:100500008430D1F4809180008F7D03C08091800081
:100510008F7780938000089584B58F7702C084B56B
:100520008F7D84BD08958091B0008F7703C0809146
:10053000B0008F7D8093B0000895CF93DF9390E05B
:10054000FC01E458FF4F2491FC01E057FF4F8491D8
:10055000882361F190E0880F991FFC01E255FF4F5D
:10056000C591D491FC01EC55FF4FA591B491611157
:1005700009C09FB7F8948881209582238883EC91E5
:100580002E230BC0623061F49FB7F8943881822F1C
:10059000809583238883EC912E2B2C939FBF06C0DC
:1005A0008FB7F894E8812E2B28838FBFDF91CF91EE
:1005B00008951F93CF93DF93282F30E0F901E85976
:1005C000FF4F8491F901E458FF4FD491F901E057AE
:1005D000FF4FC491CC23C9F0162F81110E947402E1
:1005E000EC2FF0E0EE0FFF1FEC55FF4FA591B491FB
:1005F0008FB7F894111105C09C91ED2FE095E92378
:1006000002C0EC91ED2BEC938FBFDF91CF911F9146
:10061000089508951F920F920FB60F9211242F93F1
:100620003F934F935F936F937F938F939F93AF937A
:10063000BF93EF93FF93E0910001F09101010995C1
:10064000FF91EF91BF91AF919F918F917F916F91AA
:100650005F914F913F912F910F900FBE0F901F9080
:1006600018951F920F920FB60F9211242F933F935C
:100670004F935F936F937F938F939F93AF93BF93AA
:10068000EF93FF93E0910201F09103010995FF912F
:10069000EF91BF91AF919F918F917F916F915F91FA
:1006A0004F913F912F910F900FBE0F901F90189573
:1006B0000895CF93DF93CDB7DEB7C154D1090FB6FC
:1006C000F894DEBF0FBECDBF0E9439020E945803CE
:1006D00042E063E0CE01CF960E940307CE0101966F
:1006E0000E941C070BED14E001151105E9F30E94AF
:1006F000DB04FACF813039F018F0823051F00895E0
:1007000010926E00089580916F008D7F80936F002E
:100710000895809170008D7F8093700081E08093B8
:10072000B0008091B100887F84608093B100109206
:10073000B3000895CF93C82F809104018C1307C094
:10074000E8EBF0E0E4918FEF8093040101C0EFEF5C
:100750008E2F0E947A0360E08C2FCF910C94D902E7
:100760001F920F920FB60F9211242F933F934F9326
:100770005F936F937F938F939F93AF93BF93EF9309
:10078000FF938091AA019091AB01A091AC01B0912F
:10079000AD01892B8A2B8B2B51F18091A701E09120
:1007A000A801F091A9019081892780838091AA01F5
:1007B0009091AB01A091AC01B091AD011816190652
:1007C0001A061B06C4F48091AA019091AB01A09176
:1007D000AC01B091AD010197A109B1098093AA01C3
:1007E0009093AB01A093AC01B093AD0104C0809194
:1007F00004010E949A03FF91EF91BF91AF919F91E5
:100800008F917F916F915F914F913F912F910F90B9
:100810000FBE0F901F90189580E090E008951F92F2
:100820000F920FB60F9211242F938F939F93EF93F4
:10083000FF93E091BE01F091BF018081E091C4017E
:10084000F091C50182FD12C090818091C7018F5F38
:100850008F732091C801821751F0E091C701F0E039
:10086000E255FE4F958F8093C70101C08081FF91B3
:10087000EF919F918F912F910F900FBE0F901F902E
:1008800018951F920F920FB60F9211242F933F933A
:100890004F935F936F937F938F939F93AF93BF9388
:1008A000EF93FF938EEA91E00E94E904FF91EF91AC
:1008B000BF91AF919F918F917F916F915F914F9178
:1008C0003F912F910F900FBE0F901F9018958EEAB9
:1008D00091E00E949E0421E0892B09F420E0822F00
:1008E0000895EEEAF1E01382128288EE93E0A0E030
:1008F000B0E084839583A683B78389E091E09183F8
:10090000808385EC90E09587848784EC90E09787DE
:10091000868780EC90E0918B808B81EC90E0938BCC
:10092000828B82EC90E0958B848B86EC90E0978BA9
:10093000868B118E128E138E148E0895FC01918D6C
:10094000228D892F90E0805C9F4F821B91098F73CD
:1009500099270895FC01918D828D981731F0828D31
:10096000E80FF11D858D90E008958FEF9FEF0895BA
:10097000FC01918D828D981761F0828DDF01A80FA7
:10098000B11D5D968C91928D9F5F9F73928F90E0C9
:1009900008958FEF9FEF0895FC01538D448D252F0F
:1009A00030E0842F90E0821B930B541710F0CF9609
:1009B00008950197089587E694E0892B49F080E037
:1009C00090E0892B29F00E94670481110C940000AB
:1009D0000895FC01848DDF01A80FB11DA35ABF4FFC
:1009E0002C91848D90E001968F739927848FA6892E
:1009F000B7892C93A089B1898C9180648C93938D55
:100A0000848D981306C00288F389E02D80818F7D44
:100A100080830895CF93DF93EC01888D8823C9F0FC
:100A2000EA89FB89808185FD05C0A889B9898C91F7
:100A300086FD0FC00FB607FCF5CF808185FFF2CF92
:100A4000A889B9898C9185FFEDCFCE010E94E90478
:100A5000E7CFDF91CF910895EF92FF920F931F930D
:100A6000CF93DF93EC0181E0888F9B8D8C8D981361
:100A700005C0E889F989808185FD24C0F62E0B8D9B
:100A800010E00F5F1F4F0F731127E02E8C8DE812BF
:100A90000CC00FB607FCFACFE889F989808185FF81
:100AA000F5CFCE010E94E904F1CF8B8DFE01E80F56
:100AB000F11DE35AFF4FF0820B8FEA89FB89808199
:100AC000806207C0EE89FF896083E889F9898081A7
:100AD0008064808381E090E0DF91CF911F910F913E
:100AE000FF90EF90089580917A0290E020917B0230
:100AF000821B9109089590917B0280917A02981748
:100B000050F4E92FF0E0E458FD4F208130E09F5F82
:100B100090937B0202C02FEF3FEFC9010895E0914F
:100B20007B0280917A02E81730F4F0E0E458FD4F40
:100B3000808190E008958FEF9FEF08950895CF9200
:100B4000DF92EF92FF920F931F93CF93DF937C017D
:100B5000262F972F8A0180915702882391F0C62F64
:100B6000D72F6E01C40ED51ECC15DD0571F069912D
:100B7000D701ED91FC910190F081E02DC70109951D
:100B8000F3CF642F822F0E948A00C801DF91CF919A
:100B90001F910F91FF90EF90DF90CF900895CF932A
:100BA000DF931F92CDB7DEB76983209157022223CE
:100BB000D1F020915802203240F021E030E0FC01D9
:100BC0003383228380E090E015C080915902E82FA2
:100BD000F0E0E65AFD4F998190838F5F8093590230
:100BE0008093580205C061E0CE0101960E948A0000
:100BF00081E090E00F90DF91CF910895FC01138286
:100C0000128288EE93E0A0E0B0E084839583A6830F
:100C1000B7838BE191E09183808308958BE492E028
:100C20000C94FE058F929F92AF92BF92CF92DF926B
:100C3000EF92FF920F931F93CF93DF937C018B0171
:100C40006C0182E0C80ED11C4701E5E08E0E911CBC
:100C5000C0E0D0E0F60161916F014AE050E0C801C8
:100C60000E94FC065C016EE2C8010E949F068A0D8C
:100C70009B1DC80FD91FC814D90461F74AE050E082
:100C8000F7016581C8010E94FC068C0F9D1FDF9152
:100C9000CF911F910F91FF90EF90DF90CF90BF9079
:100CA000AF909F908F900895ECE9F2E08DE291E093
:100CB0009183808312821382148215820895CF92C9
:100CC000DF92EF92FF920F931F93CF93DF936C010C
:100CD0007A018B01C0E0D0E0CE15DF0589F0D801A4
:100CE0006D918D01D601ED91FC910190F081E02D87
:100CF000C6010995892B11F47E0102C02196ECCF23
:100D0000C701DF91CF911F910F91FF90EF90DF907E
:100D1000CF9008956115710579F0FB0101900020D5
:100D2000E9F73197AF01461B570BDC01ED91FC91C0
:100D30000280F381E02D099480E090E00895DC01C9
:100D4000ED91FC910190F081E02D09944F925F921A
:100D50006F927F92EF92FF920F931F93CF93DF9347
:100D6000CDB7DEB7A1970FB6F894DEBF0FBECDBFEB
:100D70007C01FA01CB0119A2223008F42AE08E018D
:100D80000F5D1F4F422E512C612C712CBF01A3010E
:100D900092010E945407F901CA01015011096A30F9
:100DA00014F4605D01C0695CD8016C93232B242B83
:100DB000252B61F7B801C7010E948A06A1960FB6DC
:100DC000F894DEBF0FBECDBFDF91CF911F910F9181
:100DD000FF90EF907F906F905F904F900895211556
:100DE000310541F4DC01ED91FC910190F081E02DA1
:100DF000642F09940C94A6069A01462F50E060E0F7
:100E000070E00C94EF06CF93DF93EC01862F69839B
:100E10004A8360E00E949D0260E08A810E949D02F8
:100E200061E089810E94D90261E08A810E94D90231
:100E30001882DF91CF910895FC0188E080AF81AFE7
:100E400011AA12AA13AA1186128613861486158671
:100E500016861786108A118A128A138A148A158AAE
:100E6000168A178A108E118E128E138E148E158E7E
:100E7000168E178E10A211A212A213A214A215A2EE
:100E800016A217A210A611A612A613A614A615A69E
:100E900016A617A610AA80E498E7ADE7B1E082AFE6
:100EA00093AFA4AFB5AF0895A1E21A2EAA1BBB1B46
:100EB000FD010DC0AA1FBB1FEE1FFF1FA217B30726
:100EC000E407F50720F0A21BB30BE40BF50B661F3C
:100ED000771F881F991F1A9469F760957095809500
:100EE00090959B01AC01BD01CF010895EE0FFF1F4E
:0C0EF0000590F491E02D0994F894FFCFD8
:100EFC0009030903FF000000002C055F06CC040A5F
:100F0C00059E04B804AA0400000000CF059F050C40
:100F1C00049E0573057B058F05000000001206007A
:00000001FF
